:100000000C9450000C946D000C946D000C946D00D9
:100010000C946D000C946D000C946D000C946D00AC
:100020000C946D000C946D000C946D000C946D009C
:100030000C946D000C946D000C946D000C946D008C
:100040000C946D000C946D000C946D000C946D007C
:100050000C946D000C946D000C946D000C946D006C
:100060000C946D000C946D000C946D000C946D005C
:100070000C946D000C946D000C946D000C946D004C
:100080000C946D000C946D000C946D000C946D003C
:100090000C946F000C946D000C946D000C946D002A
:1000A00011241FBECFEFCDBFDFE3DEBF18E2A0E01B
:1000B000B8E2EEE1F3E002C005900D92A430B10782
:1000C000D9F728E2A4E0B8E201C01D92A631B20738
:1000D000E1F70E94D3000C948D010C9400001F9254
:1000E0000F920FB60F9211242F933F934F935F936C
:1000F0006F937F938F939F93AF93BF9340911228F9
:10010000509113286091142870911528209110287F
:100110003091112880910E2890910F28480F591F77
:10012000611D711D80910C2890910D28820F931FE5
:10013000883E23E0920730F0885E93404F5F5F4F28
:100140006F4F7F4F8093102890931128409312286F
:1001500050931328609314287093152880910828D1
:1001600090910928A0910A28B0910B280196A11D11
:10017000B11D8093082890930928A0930A28B09372
:100180000B2881E08093B60ABF91AF919F918F9128
:100190007F916F915F914F913F912F910F900FBE83
:1001A0000F901F90189590E088ED84BF90936100A8
:1001B00080E094E2A4EFB0E08093002890930128BF
:1001C000A0930228B0930328809102068660809352
:1001D00002068091000681608093000680910206ED
:1001E0008F7C809302068091A0008F788093A0007E
:1001F000809102068061809302061092E2050E94BF
:10020000000060910028709101288091022890914F
:10021000032820E432E44FE050E00E946B0160E0EC
:1002200070E480E090E00E946B01209306283093F8
:10023000072880910628909107282FEF30E0B90118
:100240000E94570160930428709305288091062826
:1002500090910728E8EEF3E0BF010E9457016093F8
:100260000E2870930F288091062890910728BF01CF
:100270000E94570180930C2890930D282093BC0A6C
:100280003093BD0A8091B50A81608093B50A84E0FD
:100290008093B00A8091B00A81608093B00A78940C
:1002A000C0E0D0E02097F1F30E940000FBCFAA1B32
:1002B000BB1B51E107C0AA1FBB1FA617B70710F051
:1002C000A61BB70B881F991F5A95A9F78095909583
:1002D000BC01CD010895A1E21A2EAA1BBB1BFD0192
:1002E0000DC0AA1FBB1FEE1FFF1FA217B307E40715
:1002F000F50720F0A21BB30BE40BF50B661F771F6D
:10030000881F991F1A9469F760957095809590954C
:0E0310009B01AC01BD01CF010895F894FFCF11
:04031E000024F400C3
:00000001FF
